:0300000002097F73
:0C097F00787FE4F6D8FD75810D02086950
:1008000041540D0A0041542B434D47463D310D0ADA
:10081000002B393139383736353433323130002B0B
:10082000393139383736353433323131002B3931BB
:10083000393837363534333231320041542B434D59
:1008400047533D2200220D0A00454D455247454E73
:10085000435920414C455254212048454C50204E8C
:0908600045454445442E0D0A00F3
:10086900D290C29112096B7FF47E011209321209EA
:10087900037FC87E001209327BFF7A0879051209C5
:10088900097FC87E001209322090FDD2917BFF7A40
:100899000879111208B87BFF7A08791F1208B87B0A
:0F08A900FF7A08792D1208B8C2912090DB80FBEE
:10096B00758920E4F587758DFD758BFD759850D2D3
:04097B008ED299225D
:0A098B00C2998F993099FDC299229C
:060903007BFF7A08790079
:100909008B0B8A0C890DAB0BAA0CA90D120952602D
:1009190013050DE50D7002050C14F9120952FF12A9
:05092900098B80E222B1
:1008B8008B088A09890A12090312092E7BFF7A0814
:1008C800790512090912092E7BFF7A08793B12096A
:1008D80009AB08AA09A90A1209097BFF7A08794510
:1008E80012090912092E7BFF7A0879491209097F32
:0B08F8001A12098B7F887E1302093260
:04092E007FE87E03DD
:10093200E4FDFCC3ED9FEC9E5015E4FBFA0BBB00FB
:0F094200010ABA04F8BBFBF50DBD00010C80E4FF
:010951002283
:10095200BB010689828A83E0225002E722BBFE02A3
:09096200E32289828A83E49322D6
:00000001FF
